{
  "abi": [
    {
      "inputs": [
        {
          "internalType": "address",
          "name": "target",
          "type": "address"
        },
        {
          "internalType": "bytes",
          "name": "callData",
          "type": "bytes"
        }
      ],
      "name": "setReentrantCall",
      "outputs": [],
      "stateMutability": "nonpayable",
      "type": "function"
    },
    {
      "inputs": [
        {
          "internalType": "address",
          "name": "",
          "type": "address"
        },
        {
          "internalType": "address",
          "name": "",
          "type": "address"
        },
        {
          "internalType": "uint256",
          "name": "",
          "type": "uint256"
        }
      ],
      "name": "transferFrom",
      "outputs": [
        {
          "internalType": "bool",
          "name": "",
          "type": "bool"
        }
      ],
      "stateMutability": "nonpayable",
      "type": "function"
    }
  ],
  "bytecode": {
    "object": "0x608060405234801561001057600080fd5b5061040f806100206000396000f3fe608060405234801561001057600080fd5b50600436106100365760003560e01c806323b872dd1461003b5780636a1a790c14610062575b600080fd5b61004e610049366004610144565b610077565b604051901515815260200160405180910390f35b610075610070366004610180565b6100fa565b005b60008054604051829182916001600160a01b039091169061009a9060019061023d565b6000604051808303816000865af19150503d80600081146100d7576040519150601f19603f3d011682016040523d82523d6000602084013e6100dc565b606091505b5091509150816100ee57805160208201fd5b50600195945050505050565b600080546001600160a01b0319166001600160a01b0385161790556001610122828483610318565b50505050565b80356001600160a01b038116811461013f57600080fd5b919050565b60008060006060848603121561015957600080fd5b61016284610128565b925061017060208501610128565b9150604084013590509250925092565b60008060006040848603121561019557600080fd5b61019e84610128565b9250602084013567ffffffffffffffff808211156101bb57600080fd5b818601915086601f8301126101cf57600080fd5b8135818111156101de57600080fd5b8760208285010111156101f057600080fd5b6020830194508093505050509250925092565b600181811c9082168061021757607f821691505b60208210810361023757634e487b7160e01b600052602260045260246000fd5b50919050565b600080835461024b81610203565b600182811680156102635760018114610278576102a7565b60ff19841687528215158302870194506102a7565b8760005260208060002060005b8581101561029e5781548a820152908401908201610285565b50505082870194505b50929695505050505050565b634e487b7160e01b600052604160045260246000fd5b601f82111561031357600081815260208120601f850160051c810160208610156102f05750805b601f850160051c820191505b8181101561030f578281556001016102fc565b5050505b505050565b67ffffffffffffffff831115610330576103306102b3565b6103448361033e8354610203565b836102c9565b6000601f84116001811461037857600085156103605750838201355b600019600387901b1c1916600186901b1783556103d2565b600083815260209020601f19861690835b828110156103a95786850135825560209485019460019092019101610389565b50868210156103c65760001960f88860031b161c19848701351681555b505060018560011b0183555b505050505056fea264697066735822122066eef2523868154afa14dcc1c6f47ca56a45eacfd7a8c0ec7c1c5f781c116bb164736f6c63430008120033",
    "linkReferences": {}
  },
  "methodIdentifiers": {
    "setReentrantCall(address,bytes)": "6a1a790c",
    "transferFrom(address,address,uint256)": "23b872dd"
  },
  "id": 25
}