{
  "abi": [
    {
      "inputs": [
        {
          "internalType": "address",
          "name": "target",
          "type": "address"
        },
        {
          "internalType": "bytes",
          "name": "callData",
          "type": "bytes"
        }
      ],
      "name": "setReentrantCall",
      "outputs": [],
      "stateMutability": "nonpayable",
      "type": "function"
    },
    {
      "inputs": [
        {
          "internalType": "address",
          "name": "",
          "type": "address"
        },
        {
          "internalType": "address",
          "name": "",
          "type": "address"
        },
        {
          "internalType": "uint256",
          "name": "",
          "type": "uint256"
        }
      ],
      "name": "transferFrom",
      "outputs": [
        {
          "internalType": "bool",
          "name": "",
          "type": "bool"
        }
      ],
      "stateMutability": "nonpayable",
      "type": "function"
    }
  ],
  "bytecode": {
    "object": "0x608060405234801561001057600080fd5b5061044e806100206000396000f3fe608060405234801561001057600080fd5b50600436106100365760003560e01c806323b872dd1461003b5780636a1a790c14610062575b600080fd5b61004e610049366004610183565b610077565b604051901515815260200160405180910390f35b6100756100703660046101bf565b610107565b005b600080546040518291829173ffffffffffffffffffffffffffffffffffffffff909116906100a79060019061027c565b6000604051808303816000865af19150503d80600081146100e4576040519150601f19603f3d011682016040523d82523d6000602084013e6100e9565b606091505b5091509150816100fb57805160208201fd5b50600195945050505050565b600080547fffffffffffffffffffffffff00000000000000000000000000000000000000001673ffffffffffffffffffffffffffffffffffffffff85161790556001610154828483610357565b50505050565b803573ffffffffffffffffffffffffffffffffffffffff8116811461017e57600080fd5b919050565b60008060006060848603121561019857600080fd5b6101a18461015a565b92506101af6020850161015a565b9150604084013590509250925092565b6000806000604084860312156101d457600080fd5b6101dd8461015a565b9250602084013567ffffffffffffffff808211156101fa57600080fd5b818601915086601f83011261020e57600080fd5b81358181111561021d57600080fd5b87602082850101111561022f57600080fd5b6020830194508093505050509250925092565b600181811c9082168061025657607f821691505b60208210810361027657634e487b7160e01b600052602260045260246000fd5b50919050565b600080835461028a81610242565b600182811680156102a257600181146102b7576102e6565b60ff19841687528215158302870194506102e6565b8760005260208060002060005b858110156102dd5781548a8201529084019082016102c4565b50505082870194505b50929695505050505050565b634e487b7160e01b600052604160045260246000fd5b601f82111561035257600081815260208120601f850160051c8101602086101561032f5750805b601f850160051c820191505b8181101561034e5782815560010161033b565b5050505b505050565b67ffffffffffffffff83111561036f5761036f6102f2565b6103838361037d8354610242565b83610308565b6000601f8411600181146103b7576000851561039f5750838201355b600019600387901b1c1916600186901b178355610411565b600083815260209020601f19861690835b828110156103e857868501358255602094850194600190920191016103c8565b50868210156104055760001960f88860031b161c19848701351681555b505060018560011b0183555b505050505056fea26469706673582212205766b6b6b972636fffc9eb510f6177a4bc68ab0801e1aef2118ac57ff2b5013764736f6c63430008120033",
    "linkReferences": {}
  },
  "methodIdentifiers": {
    "setReentrantCall(address,bytes)": "6a1a790c",
    "transferFrom(address,address,uint256)": "23b872dd"
  },
  "id": 27
}