{
  "abi": [
    {
      "inputs": [],
      "stateMutability": "nonpayable",
      "type": "constructor"
    },
    {
      "inputs": [],
      "name": "Unauthorized",
      "type": "error"
    },
    {
      "inputs": [],
      "name": "increment",
      "outputs": [],
      "stateMutability": "nonpayable",
      "type": "function"
    },
    {
      "inputs": [],
      "name": "number",
      "outputs": [
        {
          "internalType": "uint256",
          "name": "",
          "type": "uint256"
        }
      ],
      "stateMutability": "view",
      "type": "function"
    },
    {
      "inputs": [],
      "name": "owner",
      "outputs": [
        {
          "internalType": "address",
          "name": "",
          "type": "address"
        }
      ],
      "stateMutability": "view",
      "type": "function"
    },
    {
      "inputs": [
        {
          "internalType": "uint256",
          "name": "newNumber",
          "type": "uint256"
        }
      ],
      "name": "setNumber",
      "outputs": [],
      "stateMutability": "nonpayable",
      "type": "function"
    }
  ],
  "bytecode": {
    "object": "0x60a060405234801561001057600080fd5b5033608052608051610198610035600039600081816087015260cf01526101986000f3fe608060405234801561001057600080fd5b506004361061004c5760003560e01c80633fb5c1cb146100515780638381f58a146100665780638da5cb5b14610082578063d09de08a146100c1575b600080fd5b61006461005f366004610122565b600055565b005b61006f60005481565b6040519081526020015b60405180910390f35b6100a97f000000000000000000000000000000000000000000000000000000000000000081565b6040516001600160a01b039091168152602001610079565b610064336001600160a01b037f0000000000000000000000000000000000000000000000000000000000000000161461010c576040516282b42960e81b815260040160405180910390fd5b60008054908061011b8361013b565b9190505550565b60006020828403121561013457600080fd5b5035919050565b60006001820161015b57634e487b7160e01b600052601160045260246000fd5b506001019056fea26469706673582212206c70e0680b8d249c1356a9a454cbc46cd436859120468c361f45801afb33c7e864736f6c63430008120033",
    "linkReferences": {}
  },
  "methodIdentifiers": {
    "increment()": "d09de08a",
    "number()": "8381f58a",
    "owner()": "8da5cb5b",
    "setNumber(uint256)": "3fb5c1cb"
  },
  "id": 19
}