{
  "abi": [
    {
      "inputs": [
        {
          "internalType": "contract IWETH",
          "name": "weth",
          "type": "address"
        },
        {
          "internalType": "address",
          "name": "initialMember",
          "type": "address"
        }
      ],
      "stateMutability": "nonpayable",
      "type": "constructor"
    },
    {
      "inputs": [],
      "name": "WETH",
      "outputs": [
        {
          "internalType": "contract IWETH",
          "name": "",
          "type": "address"
        }
      ],
      "stateMutability": "view",
      "type": "function"
    },
    {
      "inputs": [
        {
          "internalType": "contract IERC20",
          "name": "token",
          "type": "address"
        },
        {
          "internalType": "uint256",
          "name": "tokenAmount",
          "type": "uint256"
        }
      ],
      "name": "deposit",
      "outputs": [],
      "stateMutability": "payable",
      "type": "function"
    },
    {
      "inputs": [
        {
          "internalType": "address",
          "name": "",
          "type": "address"
        }
      ],
      "name": "isMember",
      "outputs": [
        {
          "internalType": "bool",
          "name": "",
          "type": "bool"
        }
      ],
      "stateMutability": "view",
      "type": "function"
    },
    {
      "inputs": [
        {
          "internalType": "bytes[]",
          "name": "calls",
          "type": "bytes[]"
        }
      ],
      "name": "multicall",
      "outputs": [],
      "stateMutability": "payable",
      "type": "function"
    },
    {
      "inputs": [
        {
          "internalType": "contract IERC4626",
          "name": "vault",
          "type": "address"
        },
        {
          "internalType": "uint256",
          "name": "assets",
          "type": "uint256"
        }
      ],
      "name": "stake",
      "outputs": [
        {
          "internalType": "uint256",
          "name": "shares",
          "type": "uint256"
        }
      ],
      "stateMutability": "payable",
      "type": "function"
    },
    {
      "inputs": [
        {
          "internalType": "address",
          "name": "member",
          "type": "address"
        },
        {
          "internalType": "bool",
          "name": "toggle",
          "type": "bool"
        }
      ],
      "name": "toggleMember",
      "outputs": [],
      "stateMutability": "payable",
      "type": "function"
    },
    {
      "inputs": [
        {
          "internalType": "contract IERC4626",
          "name": "vault",
          "type": "address"
        },
        {
          "internalType": "uint256",
          "name": "shares",
          "type": "uint256"
        }
      ],
      "name": "unstake",
      "outputs": [
        {
          "internalType": "uint256",
          "name": "assets",
          "type": "uint256"
        }
      ],
      "stateMutability": "payable",
      "type": "function"
    },
    {
      "inputs": [
        {
          "internalType": "uint256",
          "name": "wethAmount",
          "type": "uint256"
        }
      ],
      "name": "unwrap",
      "outputs": [],
      "stateMutability": "payable",
      "type": "function"
    },
    {
      "inputs": [
        {
          "internalType": "contract IERC20",
          "name": "token",
          "type": "address"
        },
        {
          "internalType": "uint256",
          "name": "tokenAmount",
          "type": "uint256"
        },
        {
          "internalType": "address payable",
          "name": "receiver",
          "type": "address"
        }
      ],
      "name": "withdraw",
      "outputs": [],
      "stateMutability": "payable",
      "type": "function"
    },
    {
      "inputs": [
        {
          "internalType": "uint256",
          "name": "ethAmount",
          "type": "uint256"
        }
      ],
      "name": "wrap",
      "outputs": [],
      "stateMutability": "payable",
      "type": "function"
    },
    {
      "stateMutability": "payable",
      "type": "receive"
    }
  ],
  "bytecode": {
    "object": "0x60a060405234801561001057600080fd5b50604051610e7e380380610e7e83398101604081905261002f91610074565b6001600160a01b03918216608052166000908152602081905260409020805460ff191660011790556100ae565b6001600160a01b038116811461007157600080fd5b50565b6000806040838503121561008757600080fd5b82516100928161005c565b60208401519092506100a38161005c565b809150509250929050565b608051610da76100d7600039600081816101660152818161096c0152610a940152610da76000f3fe6080604052600436106100b55760003560e01c8063ad5c464811610069578063c2a672e01161004e578063c2a672e0146101c1578063de0e9a3e146101d4578063ea598cb0146101e757600080fd5b8063ad5c464814610154578063adc9772e146101a057600080fd5b8063a230c5241161009a578063a230c524146100e9578063a7e265a11461012e578063ac9650d81461014157600080fd5b806347e7ef24146100c157806369328dec146100d657600080fd5b366100bc57005b600080fd5b6100d46100cf366004610b1c565b6101fa565b005b6100d46100e4366004610b48565b6102e4565b3480156100f557600080fd5b50610119610104366004610b8a565b60006020819052908152604090205460ff1681565b60405190151581526020015b60405180910390f35b6100d461013c366004610bbc565b6104bd565b6100d461014f366004610bf5565b610536565b34801561016057600080fd5b506101887f000000000000000000000000000000000000000000000000000000000000000081565b6040516001600160a01b039091168152602001610125565b6101b36101ae366004610b1c565b6105e1565b604051908152602001610125565b6101b36101cf366004610b1c565b6107e2565b6100d46101e2366004610c6a565b6108b9565b6100d46101f5366004610c6a565b6109dd565b60015460ff16156102425760405162461bcd60e51b815260206004820152600d60248201526c6e6f207265656e7472616e637960981b60448201526064015b60405180910390fd5b6001805460ff1916811790556001600160a01b038216156102d6576040516323b872dd60e01b8152336004820152306024820152604481018290526001600160a01b038316906323b872dd906064016020604051808303816000875af11580156102b0573d6000803e3d6000fd5b505050506040513d601f19601f820116820180604052508101906102d49190610c83565b505b50506001805460ff19169055565b3360009081526020819052604090205460ff166103325760405162461bcd60e51b815260206004820152600c60248201526b3737ba10309036b2b6b132b960a11b6044820152606401610239565b60015460ff16156103755760405162461bcd60e51b815260206004820152600d60248201526c6e6f207265656e7472616e637960981b6044820152606401610239565b6001805460ff1916811790556001600160a01b038316156104095760405163a9059cbb60e01b81526001600160a01b0382811660048301526024820184905284169063a9059cbb906044016020604051808303816000875af11580156103df573d6000803e3d6000fd5b505050506040513d601f19601f820116820180604052508101906104039190610c83565b506104ae565b6000816001600160a01b03168360405160006040518083038185875af1925050503d8060008114610456576040519150601f19603f3d011682016040523d82523d6000602084013e61045b565b606091505b50509050806104ac5760405162461bcd60e51b815260206004820152601360248201527f455448207472616e73666572206661696c6564000000000000000000000000006044820152606401610239565b505b50506001805460ff1916905550565b3360009081526020819052604090205460ff1661050b5760405162461bcd60e51b815260206004820152600c60248201526b3737ba10309036b2b6b132b960a11b6044820152606401610239565b6001600160a01b03919091166000908152602081905260409020805460ff1916911515919091179055565b60005b818110156105dc576000803085858581811061055757610557610ca0565b90506020028101906105699190610cb6565b604051610577929190610d04565b600060405180830381855af49150503d80600081146105b2576040519150601f19603f3d011682016040523d82523d6000602084013e6105b7565b606091505b5091509150816105c957805160208201fd5b5050806105d590610d14565b9050610539565b505050565b3360009081526020819052604081205460ff1661062f5760405162461bcd60e51b815260206004820152600c60248201526b3737ba10309036b2b6b132b960a11b6044820152606401610239565b60015460ff16156106725760405162461bcd60e51b815260206004820152600d60248201526c6e6f207265656e7472616e637960981b6044820152606401610239565b6001805460ff191681179055604080516338d52e0f60e01b815290516001600160a01b038516916338d52e0f91600480830192602092919082900301816000875af11580156106c5573d6000803e3d6000fd5b505050506040513d601f19601f820116820180604052508101906106e99190610d3b565b60405163095ea7b360e01b81526001600160a01b03858116600483015260248201859052919091169063095ea7b3906044016020604051808303816000875af115801561073a573d6000803e3d6000fd5b505050506040513d601f19601f8201168201806040525081019061075e9190610c83565b50604051636e553f6560e01b8152600481018390523060248201526001600160a01b03841690636e553f65906044015b6020604051808303816000875af11580156107ad573d6000803e3d6000fd5b505050506040513d601f19601f820116820180604052508101906107d19190610d58565b6001805460ff191690559392505050565b3360009081526020819052604081205460ff166108305760405162461bcd60e51b815260206004820152600c60248201526b3737ba10309036b2b6b132b960a11b6044820152606401610239565b60015460ff16156108735760405162461bcd60e51b815260206004820152600d60248201526c6e6f207265656e7472616e637960981b6044820152606401610239565b6001805460ff191681179055604051635d043b2960e11b815260048101839052306024820181905260448201526001600160a01b0384169063ba0876529060640161078e565b3360009081526020819052604090205460ff166109075760405162461bcd60e51b815260206004820152600c60248201526b3737ba10309036b2b6b132b960a11b6044820152606401610239565b60015460ff161561094a5760405162461bcd60e51b815260206004820152600d60248201526c6e6f207265656e7472616e637960981b6044820152606401610239565b6001805460ff191681179055604051632e1a7d4d60e01b8152600481018290527f00000000000000000000000000000000000000000000000000000000000000006001600160a01b031690632e1a7d4d90602401600060405180830381600087803b1580156109b857600080fd5b505af11580156109cc573d6000803e3d6000fd5b50506001805460ff19169055505050565b3360009081526020819052604090205460ff16610a2b5760405162461bcd60e51b815260206004820152600c60248201526b3737ba10309036b2b6b132b960a11b6044820152606401610239565b60015460ff1615610a6e5760405162461bcd60e51b815260206004820152600d60248201526c6e6f207265656e7472616e637960981b6044820152606401610239565b6001805460ff19168117905560408051630d0e30db60e41b815290516001600160a01b037f0000000000000000000000000000000000000000000000000000000000000000169163d0e30db091849160048082019260009290919082900301818588803b158015610ade57600080fd5b505af1158015610af2573d6000803e3d6000fd5b50506001805460ff1916905550505050565b6001600160a01b0381168114610b1957600080fd5b50565b60008060408385031215610b2f57600080fd5b8235610b3a81610b04565b946020939093013593505050565b600080600060608486031215610b5d57600080fd5b8335610b6881610b04565b9250602084013591506040840135610b7f81610b04565b809150509250925092565b600060208284031215610b9c57600080fd5b8135610ba781610b04565b9392505050565b8015158114610b1957600080fd5b60008060408385031215610bcf57600080fd5b8235610bda81610b04565b91506020830135610bea81610bae565b809150509250929050565b60008060208385031215610c0857600080fd5b823567ffffffffffffffff80821115610c2057600080fd5b818501915085601f830112610c3457600080fd5b813581811115610c4357600080fd5b8660208260051b8501011115610c5857600080fd5b60209290920196919550909350505050565b600060208284031215610c7c57600080fd5b5035919050565b600060208284031215610c9557600080fd5b8151610ba781610bae565b634e487b7160e01b600052603260045260246000fd5b6000808335601e19843603018112610ccd57600080fd5b83018035915067ffffffffffffffff821115610ce857600080fd5b602001915036819003821315610cfd57600080fd5b9250929050565b8183823760009101908152919050565b600060018201610d3457634e487b7160e01b600052601160045260246000fd5b5060010190565b600060208284031215610d4d57600080fd5b8151610ba781610b04565b600060208284031215610d6a57600080fd5b505191905056fea2646970667358221220888e5400d887663d853d6a454449437f2c051540126d860fe0c70e993674f6ef64736f6c63430008120033",
    "linkReferences": {}
  },
  "methodIdentifiers": {
    "WETH()": "ad5c4648",
    "deposit(address,uint256)": "47e7ef24",
    "isMember(address)": "a230c524",
    "multicall(bytes[])": "ac9650d8",
    "stake(address,uint256)": "adc9772e",
    "toggleMember(address,bool)": "a7e265a1",
    "unstake(address,uint256)": "c2a672e0",
    "unwrap(uint256)": "de0e9a3e",
    "withdraw(address,uint256,address)": "69328dec",
    "wrap(uint256)": "ea598cb0"
  },
  "id": 29
}