{
  "abi": [
    {
      "inputs": [
        {
          "internalType": "address",
          "name": "asset_",
          "type": "address"
        },
        {
          "internalType": "string",
          "name": "name_",
          "type": "string"
        },
        {
          "internalType": "string",
          "name": "symbol_",
          "type": "string"
        },
        {
          "internalType": "uint8",
          "name": "decimals_",
          "type": "uint8"
        }
      ],
      "stateMutability": "nonpayable",
      "type": "constructor"
    },
    {
      "inputs": [],
      "name": "asset",
      "outputs": [
        {
          "internalType": "address",
          "name": "",
          "type": "address"
        }
      ],
      "stateMutability": "view",
      "type": "function"
    },
    {
      "inputs": [
        {
          "internalType": "address",
          "name": "",
          "type": "address"
        }
      ],
      "name": "balanceOf",
      "outputs": [
        {
          "internalType": "uint256",
          "name": "",
          "type": "uint256"
        }
      ],
      "stateMutability": "view",
      "type": "function"
    },
    {
      "inputs": [
        {
          "internalType": "uint256",
          "name": "assets_",
          "type": "uint256"
        }
      ],
      "name": "convertToShares",
      "outputs": [
        {
          "internalType": "uint256",
          "name": "shares_",
          "type": "uint256"
        }
      ],
      "stateMutability": "view",
      "type": "function"
    },
    {
      "inputs": [],
      "name": "decimals",
      "outputs": [
        {
          "internalType": "uint8",
          "name": "",
          "type": "uint8"
        }
      ],
      "stateMutability": "view",
      "type": "function"
    },
    {
      "inputs": [
        {
          "internalType": "uint256",
          "name": "assets_",
          "type": "uint256"
        },
        {
          "internalType": "address",
          "name": "receiver_",
          "type": "address"
        }
      ],
      "name": "deposit",
      "outputs": [
        {
          "internalType": "uint256",
          "name": "shares_",
          "type": "uint256"
        }
      ],
      "stateMutability": "nonpayable",
      "type": "function"
    },
    {
      "inputs": [],
      "name": "name",
      "outputs": [
        {
          "internalType": "string",
          "name": "",
          "type": "string"
        }
      ],
      "stateMutability": "view",
      "type": "function"
    },
    {
      "inputs": [],
      "name": "symbol",
      "outputs": [
        {
          "internalType": "string",
          "name": "",
          "type": "string"
        }
      ],
      "stateMutability": "view",
      "type": "function"
    },
    {
      "inputs": [],
      "name": "totalAssets",
      "outputs": [
        {
          "internalType": "uint256",
          "name": "assets_",
          "type": "uint256"
        }
      ],
      "stateMutability": "view",
      "type": "function"
    },
    {
      "inputs": [],
      "name": "totalSupply",
      "outputs": [
        {
          "internalType": "uint256",
          "name": "",
          "type": "uint256"
        }
      ],
      "stateMutability": "view",
      "type": "function"
    },
    {
      "inputs": [
        {
          "internalType": "address",
          "name": "recipient_",
          "type": "address"
        },
        {
          "internalType": "uint256",
          "name": "amount_",
          "type": "uint256"
        }
      ],
      "name": "transfer",
      "outputs": [
        {
          "internalType": "bool",
          "name": "success_",
          "type": "bool"
        }
      ],
      "stateMutability": "nonpayable",
      "type": "function"
    }
  ],
  "bytecode": {
    "object": "0x60c06040523480156200001157600080fd5b5060405162000ac438038062000ac4833981016040819052620000349162000134565b6001600160a01b03841660805260006200004f848262000267565b5060016200005e838262000267565b5060ff1660a0525062000333915050565b634e487b7160e01b600052604160045260246000fd5b600082601f8301126200009757600080fd5b81516001600160401b0380821115620000b457620000b46200006f565b604051601f8301601f19908116603f01168101908282118183101715620000df57620000df6200006f565b81604052838152602092508683858801011115620000fc57600080fd5b600091505b8382101562000120578582018301518183018401529082019062000101565b600093810190920192909252949350505050565b600080600080608085870312156200014b57600080fd5b84516001600160a01b03811681146200016357600080fd5b60208601519094506001600160401b03808211156200018157600080fd5b6200018f8883890162000085565b94506040870151915080821115620001a657600080fd5b50620001b58782880162000085565b925050606085015160ff81168114620001cd57600080fd5b939692955090935050565b600181811c90821680620001ed57607f821691505b6020821081036200020e57634e487b7160e01b600052602260045260246000fd5b50919050565b601f8211156200026257600081815260208120601f850160051c810160208610156200023d5750805b601f850160051c820191505b818110156200025e5782815560010162000249565b5050505b505050565b81516001600160401b038111156200028357620002836200006f565b6200029b81620002948454620001d8565b8462000214565b602080601f831160018114620002d35760008415620002ba5750858301515b600019600386901b1c1916600185901b1785556200025e565b600085815260208120601f198616915b828110156200030457888601518255948401946001909101908401620002e3565b5085821015620003235787850151600019600388901b60f8161c191681555b5050505050600190811b01905550565b60805160a05161075e62000366600039600060e101526000818161011a015281816101dd0152610409015261075e6000f3fe608060405234801561001057600080fd5b506004361061009e5760003560e01c80636e553f65116100665780636e553f651461015457806370a082311461016757806395d89b4114610187578063a9059cbb1461018f578063c6e6f592146101b257600080fd5b806301e1d114146100a357806306fdde03146100be57806318160ddd146100d3578063313ce567146100dc57806338d52e0f14610115575b600080fd5b6100ab6101c5565b6040519081526020015b60405180910390f35b6100c6610255565b6040516100b5919061054a565b6100ab60025481565b6101037f000000000000000000000000000000000000000000000000000000000000000081565b60405160ff90911681526020016100b5565b61013c7f000000000000000000000000000000000000000000000000000000000000000081565b6040516001600160a01b0390911681526020016100b5565b6100ab6101623660046105b4565b6102e3565b6100ab6101753660046105e0565b60036020526000908152604090205481565b6100c66104ba565b6101a261019d3660046105fb565b6104c7565b60405190151581526020016100b5565b6100ab6101c0366004610625565b610514565b6040516370a0823160e01b81523060048201526000907f00000000000000000000000000000000000000000000000000000000000000006001600160a01b0316906370a0823190602401602060405180830381865afa15801561022c573d6000803e3d6000fd5b505050506040513d601f19601f82011682018060405250810190610250919061063e565b905090565b6000805461026290610657565b80601f016020809104026020016040519081016040528092919081815260200182805461028e90610657565b80156102db5780601f106102b0576101008083540402835291602001916102db565b820191906000526020600020905b8154815290600101906020018083116102be57829003601f168201915b505050505081565b60006102ee83610514565b90506001600160a01b03821661033b5760405162461bcd60e51b815260206004820152600d60248201526c2d22a927afa922a1a2a4ab22a960991b60448201526064015b60405180910390fd5b806103765760405162461bcd60e51b815260206004820152600b60248201526a5a45524f5f53484152455360a81b6044820152606401610332565b826103b15760405162461bcd60e51b815260206004820152600b60248201526a5a45524f5f41535345545360a81b6044820152606401610332565b80600260008282546103c391906106a7565b90915550506001600160a01b0382811660009081526003602052604090819020805484019055516323b872dd60e01b8152336004820152306024820152604481018590527f0000000000000000000000000000000000000000000000000000000000000000909116906323b872dd906064016020604051808303816000875af1158015610454573d6000803e3d6000fd5b505050506040513d601f19601f8201168201806040525081019061047891906106ba565b6104b45760405162461bcd60e51b815260206004820152600d60248201526c5452414e534645525f46524f4d60981b6044820152606401610332565b92915050565b6001805461026290610657565b336000908152600360205260408120805483919083906104e89084906106dc565b9091555050506001600160a01b0382166000908152600360205260409020805482019055600192915050565b6002546000908015610541576105286101c5565b61053282856106ef565b61053c9190610706565b610543565b825b9392505050565b600060208083528351808285015260005b818110156105775785810183015185820160400152820161055b565b506000604082860101526040601f19601f8301168501019250505092915050565b80356001600160a01b03811681146105af57600080fd5b919050565b600080604083850312156105c757600080fd5b823591506105d760208401610598565b90509250929050565b6000602082840312156105f257600080fd5b61054382610598565b6000806040838503121561060e57600080fd5b61061783610598565b946020939093013593505050565b60006020828403121561063757600080fd5b5035919050565b60006020828403121561065057600080fd5b5051919050565b600181811c9082168061066b57607f821691505b60208210810361068b57634e487b7160e01b600052602260045260246000fd5b50919050565b634e487b7160e01b600052601160045260246000fd5b808201808211156104b4576104b4610691565b6000602082840312156106cc57600080fd5b8151801515811461054357600080fd5b818103818111156104b4576104b4610691565b80820281158282048414176104b4576104b4610691565b60008261072357634e487b7160e01b600052601260045260246000fd5b50049056fea264697066735822122057055c348c8dddcbee08783c8adac33611ffa4b607c6effe8cf726f18582f7cc64736f6c63430008120033",
    "linkReferences": {}
  },
  "methodIdentifiers": {
    "asset()": "38d52e0f",
    "balanceOf(address)": "70a08231",
    "convertToShares(uint256)": "c6e6f592",
    "decimals()": "313ce567",
    "deposit(uint256,address)": "6e553f65",
    "name()": "06fdde03",
    "symbol()": "95d89b41",
    "totalAssets()": "01e1d114",
    "totalSupply()": "18160ddd",
    "transfer(address,uint256)": "a9059cbb"
  },
  "id": 19
}