{
  "abi": [
    {
      "inputs": [
        {
          "internalType": "address",
          "name": "asset_",
          "type": "address"
        },
        {
          "internalType": "string",
          "name": "name_",
          "type": "string"
        },
        {
          "internalType": "string",
          "name": "symbol_",
          "type": "string"
        },
        {
          "internalType": "uint8",
          "name": "decimals_",
          "type": "uint8"
        }
      ],
      "stateMutability": "nonpayable",
      "type": "constructor"
    },
    {
      "inputs": [],
      "name": "asset",
      "outputs": [
        {
          "internalType": "address",
          "name": "",
          "type": "address"
        }
      ],
      "stateMutability": "view",
      "type": "function"
    },
    {
      "inputs": [
        {
          "internalType": "address",
          "name": "",
          "type": "address"
        }
      ],
      "name": "balanceOf",
      "outputs": [
        {
          "internalType": "uint256",
          "name": "",
          "type": "uint256"
        }
      ],
      "stateMutability": "view",
      "type": "function"
    },
    {
      "inputs": [
        {
          "internalType": "uint256",
          "name": "assets_",
          "type": "uint256"
        }
      ],
      "name": "convertToShares",
      "outputs": [
        {
          "internalType": "uint256",
          "name": "shares_",
          "type": "uint256"
        }
      ],
      "stateMutability": "view",
      "type": "function"
    },
    {
      "inputs": [],
      "name": "decimals",
      "outputs": [
        {
          "internalType": "uint8",
          "name": "",
          "type": "uint8"
        }
      ],
      "stateMutability": "view",
      "type": "function"
    },
    {
      "inputs": [
        {
          "internalType": "uint256",
          "name": "assets_",
          "type": "uint256"
        },
        {
          "internalType": "address",
          "name": "receiver_",
          "type": "address"
        }
      ],
      "name": "deposit",
      "outputs": [
        {
          "internalType": "uint256",
          "name": "shares_",
          "type": "uint256"
        }
      ],
      "stateMutability": "nonpayable",
      "type": "function"
    },
    {
      "inputs": [],
      "name": "name",
      "outputs": [
        {
          "internalType": "string",
          "name": "",
          "type": "string"
        }
      ],
      "stateMutability": "view",
      "type": "function"
    },
    {
      "inputs": [],
      "name": "symbol",
      "outputs": [
        {
          "internalType": "string",
          "name": "",
          "type": "string"
        }
      ],
      "stateMutability": "view",
      "type": "function"
    },
    {
      "inputs": [],
      "name": "totalAssets",
      "outputs": [
        {
          "internalType": "uint256",
          "name": "assets_",
          "type": "uint256"
        }
      ],
      "stateMutability": "view",
      "type": "function"
    },
    {
      "inputs": [],
      "name": "totalSupply",
      "outputs": [
        {
          "internalType": "uint256",
          "name": "",
          "type": "uint256"
        }
      ],
      "stateMutability": "view",
      "type": "function"
    },
    {
      "inputs": [
        {
          "internalType": "address",
          "name": "recipient_",
          "type": "address"
        },
        {
          "internalType": "uint256",
          "name": "amount_",
          "type": "uint256"
        }
      ],
      "name": "transfer",
      "outputs": [
        {
          "internalType": "bool",
          "name": "success_",
          "type": "bool"
        }
      ],
      "stateMutability": "nonpayable",
      "type": "function"
    }
  ],
  "bytecode": {
    "object": "0x60c06040523480156200001157600080fd5b5060405162000b2938038062000b29833981016040819052620000349162000134565b6001600160a01b03841660805260006200004f848262000267565b5060016200005e838262000267565b5060ff1660a0525062000333915050565b634e487b7160e01b600052604160045260246000fd5b600082601f8301126200009757600080fd5b81516001600160401b0380821115620000b457620000b46200006f565b604051601f8301601f19908116603f01168101908282118183101715620000df57620000df6200006f565b81604052838152602092508683858801011115620000fc57600080fd5b600091505b8382101562000120578582018301518183018401529082019062000101565b600093810190920192909252949350505050565b600080600080608085870312156200014b57600080fd5b84516001600160a01b03811681146200016357600080fd5b60208601519094506001600160401b03808211156200018157600080fd5b6200018f8883890162000085565b94506040870151915080821115620001a657600080fd5b50620001b58782880162000085565b925050606085015160ff81168114620001cd57600080fd5b939692955090935050565b600181811c90821680620001ed57607f821691505b6020821081036200020e57634e487b7160e01b600052602260045260246000fd5b50919050565b601f8211156200026257600081815260208120601f850160051c810160208610156200023d5750805b601f850160051c820191505b818110156200025e5782815560010162000249565b5050505b505050565b81516001600160401b038111156200028357620002836200006f565b6200029b81620002948454620001d8565b8462000214565b602080601f831160018114620002d35760008415620002ba5750858301515b600019600386901b1c1916600185901b1785556200025e565b600085815260208120601f198616915b828110156200030457888601518255948401946001909101908401620002e3565b5085821015620003235787850151600019600388901b60f8161c191681555b5050505050600190811b01905550565b60805160a0516107c262000367600039600061010101526000818161013a015281816101fd015261045d01526107c26000f3fe608060405234801561001057600080fd5b50600436106100be5760003560e01c80636e553f651161007657806395d89b411161005b57806395d89b41146101a7578063a9059cbb146101af578063c6e6f592146101d257600080fd5b80636e553f651461017457806370a082311461018757600080fd5b806318160ddd116100a757806318160ddd146100f3578063313ce567146100fc57806338d52e0f1461013557600080fd5b806301e1d114146100c357806306fdde03146100de575b600080fd5b6100cb6101e5565b6040519081526020015b60405180910390f35b6100e6610275565b6040516100d591906105ae565b6100cb60025481565b6101237f000000000000000000000000000000000000000000000000000000000000000081565b60405160ff90911681526020016100d5565b61015c7f000000000000000000000000000000000000000000000000000000000000000081565b6040516001600160a01b0390911681526020016100d5565b6100cb610182366004610618565b610303565b6100cb610195366004610644565b60036020526000908152604090205481565b6100e661051e565b6101c26101bd36600461065f565b61052b565b60405190151581526020016100d5565b6100cb6101e0366004610689565b610578565b6040516370a0823160e01b81523060048201526000907f00000000000000000000000000000000000000000000000000000000000000006001600160a01b0316906370a0823190602401602060405180830381865afa15801561024c573d6000803e3d6000fd5b505050506040513d601f19601f8201168201806040525081019061027091906106a2565b905090565b60008054610282906106bb565b80601f01602080910402602001604051908101604052809291908181526020018280546102ae906106bb565b80156102fb5780601f106102d0576101008083540402835291602001916102fb565b820191906000526020600020905b8154815290600101906020018083116102de57829003601f168201915b505050505081565b600061030e83610578565b90506001600160a01b03821661036b5760405162461bcd60e51b815260206004820152600d60248201527f5a45524f5f52454345495645520000000000000000000000000000000000000060448201526064015b60405180910390fd5b806103b85760405162461bcd60e51b815260206004820152600b60248201527f5a45524f5f5348415245530000000000000000000000000000000000000000006044820152606401610362565b826104055760405162461bcd60e51b815260206004820152600b60248201527f5a45524f5f4153534554530000000000000000000000000000000000000000006044820152606401610362565b8060026000828254610417919061070b565b90915550506001600160a01b0382811660009081526003602052604090819020805484019055516323b872dd60e01b8152336004820152306024820152604481018590527f0000000000000000000000000000000000000000000000000000000000000000909116906323b872dd906064016020604051808303816000875af11580156104a8573d6000803e3d6000fd5b505050506040513d601f19601f820116820180604052508101906104cc919061071e565b6105185760405162461bcd60e51b815260206004820152600d60248201527f5452414e534645525f46524f4d000000000000000000000000000000000000006044820152606401610362565b92915050565b60018054610282906106bb565b3360009081526003602052604081208054839190839061054c908490610740565b9091555050506001600160a01b0382166000908152600360205260409020805482019055600192915050565b60025460009080156105a55761058c6101e5565b6105968285610753565b6105a0919061076a565b6105a7565b825b9392505050565b600060208083528351808285015260005b818110156105db578581018301518582016040015282016105bf565b506000604082860101526040601f19601f8301168501019250505092915050565b80356001600160a01b038116811461061357600080fd5b919050565b6000806040838503121561062b57600080fd5b8235915061063b602084016105fc565b90509250929050565b60006020828403121561065657600080fd5b6105a7826105fc565b6000806040838503121561067257600080fd5b61067b836105fc565b946020939093013593505050565b60006020828403121561069b57600080fd5b5035919050565b6000602082840312156106b457600080fd5b5051919050565b600181811c908216806106cf57607f821691505b6020821081036106ef57634e487b7160e01b600052602260045260246000fd5b50919050565b634e487b7160e01b600052601160045260246000fd5b80820180821115610518576105186106f5565b60006020828403121561073057600080fd5b815180151581146105a757600080fd5b81810381811115610518576105186106f5565b8082028115828204841417610518576105186106f5565b60008261078757634e487b7160e01b600052601260045260246000fd5b50049056fea26469706673582212208e76b2868acd0ef550895eef39d883cfa10bbe15128280797e1c37eee948fca964736f6c63430008120033",
    "linkReferences": {}
  },
  "methodIdentifiers": {
    "asset()": "38d52e0f",
    "balanceOf(address)": "70a08231",
    "convertToShares(uint256)": "c6e6f592",
    "decimals()": "313ce567",
    "deposit(uint256,address)": "6e553f65",
    "name()": "06fdde03",
    "symbol()": "95d89b41",
    "totalAssets()": "01e1d114",
    "totalSupply()": "18160ddd",
    "transfer(address,uint256)": "a9059cbb"
  },
  "id": 19
}