{
  "abi": [
    {
      "inputs": [
        {
          "components": [
            {
              "internalType": "address",
              "name": "target",
              "type": "address"
            },
            {
              "internalType": "bytes",
              "name": "callData",
              "type": "bytes"
            }
          ],
          "internalType": "struct Multicall.Call[]",
          "name": "calls",
          "type": "tuple[]"
        }
      ],
      "name": "aggregate",
      "outputs": [
        {
          "internalType": "uint256",
          "name": "blockNumber",
          "type": "uint256"
        },
        {
          "internalType": "bytes[]",
          "name": "returnData",
          "type": "bytes[]"
        }
      ],
      "stateMutability": "nonpayable",
      "type": "function"
    }
  ],
  "bytecode": {
    "object": "0x608060405234801561001057600080fd5b50610595806100206000396000f3fe608060405234801561001057600080fd5b506004361061002b5760003560e01c8063252dba4214610030575b600080fd5b61004361003e3660046102b8565b61005a565b604051610051929190610482565b60405180910390f35b8051439060609067ffffffffffffffff81111561007957610079610248565b6040519080825280602002602001820160405280156100ac57816020015b60608152602001906001900390816100975790505b50905060005b83518110156101c6576000808583815181106100d0576100d06104ec565b60200260200101516000015173ffffffffffffffffffffffffffffffffffffffff16868481518110610104576101046104ec565b60200260200101516020015160405161011d9190610502565b6000604051808303816000865af19150503d806000811461015a576040519150601f19603f3d011682016040523d82523d6000602084013e61015f565b606091505b50915091508161016e57600080fd5b80848481518110610181576101816104ec565b60200260200101819052506101b16040518060400160405280600481526020016315195cdd60e21b8152506101cc565b505080806101be9061051e565b9150506100b2565b50915091565b610224816040516024016101e09190610545565b60408051601f198184030181529190526020810180517bffffffffffffffffffffffffffffffffffffffffffffffffffffffff1663104c13eb60e21b179052610227565b50565b80516a636f6e736f6c652e6c6f67602083016000808483855afa5050505050565b634e487b7160e01b600052604160045260246000fd5b6040805190810167ffffffffffffffff8111828210171561028157610281610248565b60405290565b604051601f8201601f1916810167ffffffffffffffff811182821017156102b0576102b0610248565b604052919050565b600060208083850312156102cb57600080fd5b823567ffffffffffffffff808211156102e357600080fd5b818501915085601f8301126102f757600080fd5b81358181111561030957610309610248565b8060051b610318858201610287565b918252838101850191858101908984111561033257600080fd5b86860192505b83831015610425578235858111156103505760008081fd5b86016040601f19828d0381018213156103695760008081fd5b61037161025e565b8a84013573ffffffffffffffffffffffffffffffffffffffff811681146103985760008081fd5b815283830135898111156103ac5760008081fd5b8085019450508d603f8501126103c25760008081fd5b8a840135898111156103d6576103d6610248565b6103e68c84601f84011601610287565b92508083528e848287010111156103fd5760008081fd5b808486018d85013760009083018c0152808b0191909152845250509186019190860190610338565b9998505050505050505050565b60005b8381101561044d578181015183820152602001610435565b50506000910152565b6000815180845261046e816020860160208601610432565b601f01601f19169290920160200192915050565b600060408201848352602060408185015281855180845260608601915060608160051b870101935082870160005b828110156104de57605f198887030184526104cc868351610456565b955092840192908401906001016104b0565b509398975050505050505050565b634e487b7160e01b600052603260045260246000fd5b60008251610514818460208701610432565b9190910192915050565b60006001820161053e57634e487b7160e01b600052601160045260246000fd5b5060010190565b6020815260006105586020830184610456565b939250505056fea2646970667358221220e86c17a37b32f1dc921445caab207f8bd49f52117f7be6b9392eb5e1594be9d464736f6c63430008120033",
    "linkReferences": {}
  },
  "methodIdentifiers": {
    "aggregate((address,bytes)[])": "252dba42"
  },
  "id": 23
}