{
  "abi": [
    {
      "anonymous": false,
      "inputs": [
        {
          "indexed": true,
          "internalType": "address",
          "name": "sender",
          "type": "address"
        },
        {
          "indexed": true,
          "internalType": "address",
          "name": "receiver",
          "type": "address"
        },
        {
          "indexed": false,
          "internalType": "uint256",
          "name": "amount",
          "type": "uint256"
        }
      ],
      "name": "Transfer",
      "type": "event"
    },
    {
      "inputs": [],
      "name": "withdraw",
      "outputs": [],
      "stateMutability": "nonpayable",
      "type": "function"
    },
    {
      "stateMutability": "payable",
      "type": "receive"
    }
  ],
  "bytecode": {
    "object": "0x608060405234801561001057600080fd5b50610115806100206000396000f3fe60806040526004361060205760003560e01c80633ccfd60b14606257600080fd5b36605d57604051348152309033907fddf252ad1be2c89b69c2b068fc378daa952ba7f163c4a11628f55a4df523b3ef9060200160405180910390a3005b600080fd5b348015606d57600080fd5b5060746076565b005b6040514790339082156108fc029083906000818181858888f1935050505015801560a4573d6000803e3d6000fd5b50604051818152339030907fddf252ad1be2c89b69c2b068fc378daa952ba7f163c4a11628f55a4df523b3ef9060200160405180910390a35056fea2646970667358221220f3e6e888cca0b08524fba1293e9c42c9ac520d5db3e26eed584b74d463912b5264736f6c63430008120033",
    "linkReferences": {}
  },
  "methodIdentifiers": {
    "withdraw()": "3ccfd60b"
  },
  "id": 21
}