{
  "abi": [
    {
      "inputs": [
        {
          "internalType": "contract IPermit2",
          "name": "permit_",
          "type": "address"
        }
      ],
      "stateMutability": "nonpayable",
      "type": "constructor"
    },
    {
      "inputs": [],
      "name": "PERMIT2",
      "outputs": [
        {
          "internalType": "contract IPermit2",
          "name": "",
          "type": "address"
        }
      ],
      "stateMutability": "view",
      "type": "function"
    },
    {
      "inputs": [
        {
          "internalType": "contract IERC20",
          "name": "token",
          "type": "address"
        },
        {
          "internalType": "uint256",
          "name": "amount",
          "type": "uint256"
        },
        {
          "components": [
            {
              "components": [
                {
                  "internalType": "contract IERC20",
                  "name": "token",
                  "type": "address"
                },
                {
                  "internalType": "uint256",
                  "name": "amount",
                  "type": "uint256"
                }
              ],
              "internalType": "struct IPermit2.TokenPermissions",
              "name": "permitted",
              "type": "tuple"
            },
            {
              "internalType": "uint256",
              "name": "nonce",
              "type": "uint256"
            },
            {
              "internalType": "uint256",
              "name": "deadline",
              "type": "uint256"
            }
          ],
          "internalType": "struct IPermit2.PermitTransferFrom",
          "name": "permit",
          "type": "tuple"
        },
        {
          "internalType": "bytes",
          "name": "signature",
          "type": "bytes"
        }
      ],
      "name": "depositERC20",
      "outputs": [],
      "stateMutability": "nonpayable",
      "type": "function"
    },
    {
      "inputs": [
        {
          "internalType": "address",
          "name": "",
          "type": "address"
        },
        {
          "internalType": "contract IERC20",
          "name": "",
          "type": "address"
        }
      ],
      "name": "tokenBalancesByUser",
      "outputs": [
        {
          "internalType": "uint256",
          "name": "",
          "type": "uint256"
        }
      ],
      "stateMutability": "view",
      "type": "function"
    },
    {
      "inputs": [
        {
          "internalType": "contract IERC20",
          "name": "token",
          "type": "address"
        },
        {
          "internalType": "uint256",
          "name": "amount",
          "type": "uint256"
        }
      ],
      "name": "withdrawERC20",
      "outputs": [],
      "stateMutability": "nonpayable",
      "type": "function"
    }
  ],
  "bytecode": {
    "object": "0x60a060405234801561001057600080fd5b5060405161060c38038061060c83398101604081905261002f91610040565b6001600160a01b0316608052610070565b60006020828403121561005257600080fd5b81516001600160a01b038116811461006957600080fd5b9392505050565b60805161057b61009160003960008181606b01526101a9015261057b6000f3fe608060405234801561001057600080fd5b506004361061004c5760003560e01c8063513af1a4146100515780636afdd850146100665780638d00e14e146100aa578063a1db9782146100e3575b600080fd5b61006461005f366004610344565b6100f6565b005b61008d7f000000000000000000000000000000000000000000000000000000000000000081565b6040516001600160a01b0390911681526020015b60405180910390f35b6100d56100b83660046103ed565b600160209081526000928352604080842090915290825290205481565b6040519081526020016100a1565b6100646100f1366004610426565b610227565b60005460ff161561013e5760405162461bcd60e51b815260206004820152600d60248201526c6e6f207265656e7472616e637960981b60448201526064015b60405180910390fd5b6000805460ff191660019081178255338252602090815260408083206001600160a01b03891684529091528120805486929061017b908490610468565b909155505060408051808201825230815260208101869052905163187945bd60e11b81526001600160a01b037f000000000000000000000000000000000000000000000000000000000000000016916330f28b7a916101e4918791339088908890600401610481565b600060405180830381600087803b1580156101fe57600080fd5b505af1158015610212573d6000803e3d6000fd5b50506000805460ff1916905550505050505050565b60005460ff161561026a5760405162461bcd60e51b815260206004820152600d60248201526c6e6f207265656e7472616e637960981b6044820152606401610135565b6000805460ff191660019081178255338252602090815260408083206001600160a01b0386168452909152812080548392906102a7908490610509565b909155505060405163a9059cbb60e01b8152336004820152602481018290526001600160a01b0383169063a9059cbb906044016020604051808303816000875af11580156102f9573d6000803e3d6000fd5b505050506040513d601f19601f8201168201806040525081019061031d919061051c565b50506000805460ff1916905550565b6001600160a01b038116811461034157600080fd5b50565b600080600080600085870360e081121561035d57600080fd5b86356103688161032c565b9550602087013594506080603f198201121561038357600080fd5b5060408601925060c086013567ffffffffffffffff808211156103a557600080fd5b818801915088601f8301126103b957600080fd5b8135818111156103c857600080fd5b8960208285010111156103da57600080fd5b9699959850939650602001949392505050565b6000806040838503121561040057600080fd5b823561040b8161032c565b9150602083013561041b8161032c565b809150509250929050565b6000806040838503121561043957600080fd5b82356104448161032c565b946020939093013593505050565b634e487b7160e01b600052601160045260246000fd5b8082018082111561047b5761047b610452565b92915050565b600061010087356104918161032c565b6001600160a01b039081168452602089810135818601526040808b0135908601526060808b01359086015288518216608086015288015160a0850152861660c084015260e0830181905282018390526101208385828501376000838501820152601f909301601f191690910190910195945050505050565b8181038181111561047b5761047b610452565b60006020828403121561052e57600080fd5b8151801515811461053e57600080fd5b939250505056fea264697066735822122019f890bd21aa2c31cb1dde6ed6cc6aaecfa42f3f88cfd477c3a97042237eab2a64736f6c63430008120033",
    "linkReferences": {}
  },
  "methodIdentifiers": {
    "PERMIT2()": "6afdd850",
    "depositERC20(address,uint256,((address,uint256),uint256,uint256),bytes)": "513af1a4",
    "tokenBalancesByUser(address,address)": "8d00e14e",
    "withdrawERC20(address,uint256)": "a1db9782"
  },
  "id": 26
}